:100000000C9464000C94081C0C942F1C0C94561A2D
:100010000C94561A0C94561A0C948C000C948C0068
:100020000C948C000C948C000C948C000C948C0020
:100030000C948C000C948C000C948C000C948C0010
:100040000C94561C0C948C000C94101E0C94421EA4
:100050000C948C000C948C000C948C000C948C00F0
:100060000C948C000C948C0000000008000201002D
:100070000003040700000000000000000102040863
:100080001020408001020408102001020408102002
:10009000040404040404040402020202020203032E
:1000A00003030303000000002300260029000000D2
:1000B0000000250028002B0000000000240027007D
:1000C0002A00C818721E3A1911241FBECFEFD8E0BB
:1000D000DEBFCDBF12E0A0E0B1E0E8E9F0E502C08C
:1000E00005900D92AA3BB107D9F724E0AAEBB2E044
:1000F00001C01D92A438B207E1F710E0C6ECD0E0D1
:1001000004C02297FE010E947C25C23CD107C9F79A
:100110000E94FD210C943F280C940000EF92FF9266
:100120000F931F93CF93DF93EC01862F790169839F
:10013000488361E00E94781D18861C821D821E8201
:100140001F82FC86EB861A870987DF91CF911F916A
:100150000F91FF90EF900895CF93DF93EC01E98525
:10016000FA8509958E3461F48A819DEF980F9E344B
:1001700038F4833039F08885882321F0188603C04D
:1001800080E001C081E0DF91CF910895CF92DF92AE
:10019000EF92FF92CF93DF93EC0161E089810E949F
:1001A000B11D88810E94321D0E94A01C6B017C0140
:1001B000EE24FF240E94A01C6C197D098E099F0962
:1001C0006230710581059105A8F388810E94321D76
:1001D0007C0160E089810E94B11DB701882777FD0D
:1001E0008095982F0E94EF2320E030E040EA50E411
:1001F0000E94A32420E030E040E85AE30E94A324B8
:1002000023EC35EF40E850E40E94A32420E030E0E6
:1002100048E351E40E94F0226B017C010E94A01C83
:100220006C837D838E839F8320E030E040E251E445
:10023000C701B6010E94A3240E94C123862FDF912B
:10024000CF91FF90EF90DF90CF900895CF93DF9301
:10025000EC010E94C6008A83CE010E94AC0081118D
:1002600008C08885811105C0EB85FC85099581E072
:100270008887DF91CF9108950F931F93CF93DF93DA
:10028000EC010E94A01C0C811D812E813F81601B0E
:10029000710B820B930B61327F4B8240910538F0DA
:1002A000CE01DF91CF911F910F910C942601DF9128
:1002B000CF911F910F910895CF93DF93EC01862F7B
:1002C0006C835E834D8360E00E94781D18861B8AD4
:1002D000188219821A821B8219861C8A1D8A1E8A1C
:1002E0001F8A188E198E1A8E1B8E1A8A1F82DF9112
:1002F000CF9108950C945C01FC01718B608B089583
:100300008F929F92AF92BF92CF92DF92EF92FF9225
:10031000CF93DF93EC018A89811131C0F894C88CA6
:10032000D98CEA8CFB8C789488809980AA80BB80D9
:100330000E94A01CC114D104E104F10401F1AB013D
:10034000BC014C195D096E097F09483B5B406105A2
:100350007105A8F020E030E0A901C501B4010E94B8
:100360005523882361F0188219821A821B828B8997
:10037000882319F0EC85FD85099518861B8ADF9185
:10038000CF91FF90EF90DF90CF90BF90AF909F9074
:100390008F900895FC01738762875587448737875C
:1003A00026870895F894FC01608171818281938190
:1003B00078940895FC01108681E0838B0684F7858C
:1003C000E02D09948F929F92AF92BF92CF92DF92CD
:1003D000EF92FF92CF93DF93EC01F894688D798DC3
:1003E0008A8D9B8D0E94ED236B017C018C889D88FA
:1003F000AE88BF88789420E030E0A9010E945523A0
:10040000882309F467C0C501B4010E94ED234B01A4
:100410005C0120E030E0A9010E945523882309F403
:1004200059C0A5019401C701B6010E945523882334
:1004300009F450C0A5019401C701B6010E94F02241
:100440009B01AC0160E070E68AE697E40E945923C4
:10045000688379838A839B83C880D980EA80FB8004
:100460008B89811115C020E030E046E153E4C701DB
:10047000B6010E949F24988518162CF49A3018F41F
:100480009F5F988705C09A3018F0CE010E94DA016C
:100490008F8181111FC08B898823E1F0E889F98958
:1004A0006281738180E090E00E94ED239B01AC01AA
:1004B000C701B6010E949F2418165CF489858A3012
:1004C00018F48F5F898706C081E08F83EA85FB85FA
:1004D00009951986DF91CF91FF90EF90DF90CF9033
:1004E000BF90AF909F908F900895FC011782089560
:1004F000CF93DF93EC018A89882321F0CE010E94FB
:10050000E2011A8ACE01DF91CF910C948001FC01A7
:1005100015AE6DE672E0C7960C946C20FC0175A7D1
:1005200064A757A746A731AB20AB08951F93CF937D
:10053000DF93EB0110E0612F70E08C819D816817E3
:10054000790770F4CE010E948021282F332727FDE0
:100550003095205331092A30310520F41F5FEBCF4D
:1005600081E001C080E0DF91CF911F9108959C014F
:10057000CB01B9010E940A2191E0811101C090E0F4
:10058000892F0895FC0186AD97ADFC0120812223BF
:1005900031F004960E940A2191E0811101C090E09F
:1005A000892F0895FC0177AF66AF0895EF92FF920F
:1005B0000F931F93CF93DF9300D000D000D0CDB71F
:1005C000DEB78C017B01BC01C7010E940A218111A9
:1005D00017C0B701CE0101960E945720BE016F5F80
:1005E0007F4FF80186AD97AD0E944514182FCE01BC
:1005F00001960E94861F81E01F3F19F480E001C030
:1006000081E026960FB6F894DEBF0FBECDBFDF9116
:10061000CF911F910F91FF90EF9008950F931F932B
:10062000CF93DF93EC018D8981111CC060E0898537
:100630000E94B11D81E08D8B0E94A01C6F8B788F72
:10064000898F9A8F0E94A01C0F89188D298D3A8D51
:10065000601B710B820B930B65367105810591054B
:1006600088F306C00E94A01C6F8B788F898F9A8FA9
:10067000DF91CF911F910F910895CF93DF93EC01FC
:1006800061E089850E94B11D1D8ADF91CF91089597
:100690001F93CF93DF93EC01162F6BE071E00E9464
:1006A0006C20CE010E9487021EAA198788EC8E8BCF
:1006B0001D8A61E0812F0E94781DCE010E943D03BA
:1006C00083E08E8385E08F8318861E862EE428A71C
:1006D00084E893E09AA389A31FA28AEF888B1D8EDA
:1006E00083E48E8F2B8F2C8F1F8E18A21AA61BA629
:1006F00019A6DF91CF911F910895FF920F931F9339
:10070000CF93DF93EC018B01F42E6DE672E00E9433
:10071000F41F6DE672E0CE01C7960E94F41F1DAB78
:100720000CAB40E05BE460E070E0C8010E94591B44
:100730006F2DCE01DF91CF911F910F91FF900C94FF
:1007400048030F931F93CF93DF9300D0CDB7DEB74D
:100750008C014A8369830E940E03F80184A995A93C
:100760004A816981411108C00F900F90DF91CF91AC
:100770001F910F910C94011F0F900F90DF91CF915B
:100780001F910F910C941E1FEF92FF920F931F93D6
:10079000CF93DF931F92CDB7DEB78C017B014983E6
:1007A0000E940E036DE672E0C7010E941D21F80150
:1007B00024A935A94981882351F0C9010F90DF91FF
:1007C000CF911F910F91FF90EF900C94081FB701EC
:1007D000C901411109C00F90DF91CF911F910F9175
:1007E000FF90EF900C94F31E0F90DF91CF911F912B
:1007F0000F91FF90EF900C940C1F0F931F93CF93CA
:10080000DF9300D000D000D0CDB7DEB78C0166E119
:1008100071E0CE0101960E94F41F41E0BE016F5FBE
:100820007F4FC8010E94C403CE0101960E94861F1B
:1008300026960FB6F894DEBF0FBECDBFDF91CF91E5
:100840001F910F910895EF92FF920F931F93CF93F3
:10085000DF93CDB7DEB72C970FB6F894DEBF0FBE8F
:10086000CDBF8C017B016DE672E0CE0107960E9440
:10087000F41F69E271E0CE0107960E946C20B70177
:10088000CE0107960E94B020BE01695F7F4FCE0166
:1008900001960E94572041E0BE016F5F7F4FC80163
:1008A0000E94C403CE0101960E94861FCE010796C6
:1008B0000E94861F2C960FB6F894DEBF0FBECDBFE8
:1008C000DF91CF911F910F91FF90EF900895EF92DC
:1008D000FF920F931F93CF93DF9300D000D000D0EF
:1008E000CDB7DEB77C018B016DE672E00E94F41F8C
:1008F000D801D4968D919C91D597DC01ED91FC9116
:100900000480F581E02D099518161906ACF4C8018C
:100910000E940E03F80164A975A94AE0CE01019670
:100920000E945E1FBE016F5F7F4FC7010E94602063
:10093000CE0101960E94861FC70126960FB6F89435
:10094000DEBF0FBECDBFDF91CF911F910F91FF9002
:10095000EF900895BF92CF92DF92EF92FF920F93A4
:100960001F93CF93DF93CDB7DEB762970FB6F8949E
:10097000DEBF0FBECDBF8C01CE0101960E94572075
:1009800040E0BE016F5F7F4FC8010E94C403CE01EB
:1009900001960E94861F0E94A01C6B017C016DE6DF
:1009A00072E0CE010D960E94F41F0E94A01C6C19EB
:1009B0007D098E099F09683B7B408105910508F000
:1009C0005EC0D801D4968D919C91D597DC01ED91B4
:1009D000FC910480F581E02D0995181619062CF775
:1009E000B801CE0101960E946704BE016F5F7F4F80
:1009F000CE010D960E946020CE0101960E94861FB6
:100A000062E371E0CE0101960E94F41FBE01635FB4
:100A10007F4FCE0107960E945720BE016F5F7F4F28
:100A2000CE0107960E940A21B82ECE0107960E9499
:100A3000861FCE0101960E94861FB11022C066E378
:100A400071E0CE0101960E94F41FBE01635F7F4FEB
:100A5000CE0107960E945720BE016F5F7F4FCE01E7
:100A600007960E940A21B82ECE0107960E94861F83
:100A7000CE0101960E94861FBB2009F496CF10E09C
:100A800001C011E0CE010D960E94861F812F629653
:100A90000FB6F894DEBF0FBECDBFDF91CF911F918F
:100AA0000F91FF90EF90DF90CF90BF900895EF925D
:100AB000FF920F931F93CF93DF9300D000D000D00D
:100AC000CDB7DEB78C01F12C6DE371E0CE0101965C
:100AD0000E94F41FBE016F5F7F4FC8010E94AA04ED
:100AE000E82ECE0101960E94861FEE20E9F162E415
:100AF00071E0CE0101960E94F41FBE016F5F7F4F2F
:100B0000C8010E94AA04E82ECE0101960E94861F09
:100B1000EE2051F16EE471E0CE0101960E94F41FC7
:100B2000BE016F5F7F4FC8010E94AA04E82ECE016C
:100B300001960E94861FEE20B9F06AE571E0CE01B1
:100B400001960E94F41FBE016F5F7F4FC8010E9493
:100B5000AA04E82ECE0101960E94861FEE2021F005
:100B600081E0F80186AB0AC0F80186A9811105C0B1
:100B7000F11004C0FF24F394A7CF80E026960FB6AF
:100B8000F894DEBF0FBECDBFDF91CF911F910F91C3
:100B9000FF90EF900895CF92DF92EF92FF920F9324
:100BA0001F93CF93DF9300D000D000D0CDB7DEB736
:100BB0007B016901BA01C7010E946021882399F075
:100BC0009801A601B701CE0101960E94AC21BE0199
:100BD0006F5F7F4FC7010E946020CE0101960E9487
:100BE000861F81E001C080E026960FB6F894DEBF34
:100BF0000FBECDBFDF91CF911F910F91FF90EF906E
:100C0000DF90CF900895BF92CF92DF92EF92FF9244
:100C10000F931F93CF93DF9300D000D000D0CDB7B8
:100C2000DEB76C017B01B42E66E671E0C7010E945D
:100C30001D21D601DE96ED91FC91DF97882311F0FE
:100C4000B1109AC081818111A0C0F7010481158182
:100C5000015011096FE671E0CE0101960E94F41F68
:100C600023E030E0AE014F5F5F4FB701C6010E9445
:100C7000CB05182FCE0101960E94861F112391F0FB
:100C8000B701C6010E949602882309F47EC0C701FD
:100C90000E94F121D601DE968D919C91DF970E94F2
:100CA000101473C063E771E0CE0101960E94F41F37
:100CB0000CE010E022E030E0AE014F5F5F4FB70183
:100CC000C6010E94CB05182FCE0101960E94861FF7
:100CD0001123E1F0F701848195810A9709F055C04D
:100CE000B701C6010E949602882309F44EC0B701DD
:100CF000CE0101960E9457204B2DBE016F5F7F4FA2
:100D0000F60186AD97AD0E9431173BC066E771E0F2
:100D1000CE0101960E94F41F0CE010E022E030E0CA
:100D2000AE014F5F5F4FB701C6010E94CB05182F80
:100D3000CE0101960E94861F112339F1D701149626
:100D40008D919C9115970A9701F5B701C6010E94F4
:100D500096028823D1F0B701CE0101960E94572058
:100D600041E0BE016F5F7F4FD601DE968D919C9171
:100D7000DF970E94D71605C061E0CF010E94CC1416
:100D800004C0CE0101960E94861F26960FB6F894E5
:100D9000DEBF0FBECDBFDF91CF911F910F91FF90AE
:100DA000EF90DF90CF90BF900895CF92DF92EF92B7
:100DB000FF920F931F93CF93DF9300D000D000D00A
:100DC000CDB7DEB78C017B01CE0101960E94572082
:100DD000BE016F5F7F4FC8010E94B702D82ECE01BF
:100DE00001960E94861FDD2001F1B801CE01019617
:100DF0000E946704BE016F5F7F4FC7010E946020A1
:100E0000CE0101960E94861FB701CE0101960E9475
:100E100057204D2DBE016F5F7F4FC8010E94030612
:100E2000CE0101960E94861F12C0B701CE01019625
:100E30000E945720BE016F5F7F4FC8010E94C2020F
:100E4000C82ECE0101960E94861FC110CECFC801C8
:100E50000E94FD0326960FB6F894DEBF0FBECDBFED
:100E6000DF91CF911F910F91FF90EF90DF90CF9086
:100E70000895CF92DF92EF92FF920F931F93CF933B
:100E8000DF9300D000D000D0CDB7DEB77C016B017E
:100E900069E771E0CE0101960E94F41F02E210E0C2
:100EA00028E130E0AE014F5F5F4FB601C7010E94FD
:100EB000CB05F82ECE0101960E94861F8F2D269617
:100EC0000FB6F894DEBF0FBECDBFDF91CF911F915B
:100ED0000F91FF90EF90DF90CF900895CF92DF9227
:100EE000EF92FF920F931F93CF93DF9300D000D028
:100EF00000D0CDB7DEB76C017B01FB010481158109
:100F00000150110960E871E0CE0101960E94F41FC2
:100F10002CE030E0AE014F5F5F4FB701C6010E9489
:100F2000CB05182FCE0101960E94861F812F269691
:100F30000FB6F894DEBF0FBECDBFDF91CF911F91EA
:100F40000F91FF90EF90DF90CF900895CF92DF92B6
:100F5000EF92FF920F931F93CF93DF9300D000D0B7
:100F600000D0CDB7DEB77C016B0167E871E0CE0140
:100F700001960E94F41F05E110E02BE030E0AE0185
:100F80004F5F5F4FB601C7010E94CB05F82ECE011F
:100F900001960E94861F8F2D26960FB6F894DEBF0D
:100FA0000FBECDBFDF91CF911F910F91FF90EF90BA
:100FB000DF90CF900895CB0160E971E00E941D2180
:100FC00091E0811101C090E0892F0895CF92DF92C6
:100FD000EF92FF920F931F93CF93DF9300D000D037
:100FE00000D0CDB7DEB77C016B0166E971E0CE01C0
:100FF00001960E94F41F07E010E026E030E0AE0109
:101000004F5F5F4FB601C7010E94CB05F82ECE019E
:1010100001960E94861F8F2D26960FB6F894DEBF8C
:101020000FBECDBFDF91CF911F910F91FF90EF9039
:10103000DF90CF900895FF920F931F93CF93DF938C
:10104000CDB7DEB72C970FB6F894DEBF0FBECDBF7D
:101050008B016DE971E0CE0101960E94F41FB80189
:10106000CE0107960E945720BE016F5F7F4FCE01D1
:1010700007960E940A21F82ECE0107960E94861F2D
:10108000CE0101960E94861FF1105AC069EA71E0F4
:10109000CE0101960E94F41FB801CE0107960E946E
:1010A0005720BE016F5F7F4FCE0107960E940A2135
:1010B000F82ECE0107960E94861FCE0101960E944F
:1010C000861FF1103DC06FEA71E0CE0107960E94C5
:1010D000F41FB801CE0101960E945720BE01695F3E
:1010E0007F4FCE0101960E940A21F82ECE01019673
:1010F0000E94861FCE0107960E94861FF11020C015
:1011000066E371E0CE0107960E94F41FB801CE019C
:1011100001960E945720BE01695F7F4FCE01019664
:101120000E940A21182FCE0101960E94861FCE012F
:1011300007960E94861F81E0111103C080E001C064
:1011400081E02C960FB6F894DEBF0FBECDBFDF91C5
:10115000CF911F910F91FF9008950F931F93CF93FD
:10116000DF93CDB7DEB72C970FB6F894DEBF0FBE76
:10117000CDBF8B016AEB71E0CE0101960E94F41F96
:10118000B801CE0107960E945720BE016F5F7F4FC6
:10119000CE0107960E940A21182FCE0107960E94C1
:1011A000861FCE0101960E94861F81E0111101C0A9
:1011B00080E02C960FB6F894DEBF0FBECDBFDF9156
:1011C000CF911F910F910895CF92DF92EF92FF92EE
:1011D0000F931F93CF93DF9300D000D000D0CDB7F3
:1011E000DEB77C016B0164EC71E0CE0101960E94D8
:1011F000F41F0CE010E02BE030E0AE014F5F5F4FDA
:10120000B601C7010E94CB05182FCE0101960E949E
:10121000861F111134C061ED71E0CE0101960E946C
:10122000F41F0CE010E02BE030E0AE014F5F5F4FA9
:10123000B601C7010E94CB05182FCE0101960E946E
:10124000861F11111EC06EED71E0CE0101960E9445
:10125000F41F0CE010E02BE030E0AE014F5F5F4F79
:10126000B601C7010E94CB05F82ECE0101960E945F
:10127000861FFF2011F085E405C08EE403C082E5DF
:1012800001C089E426960FB6F894DEBF0FBECDBF2D
:10129000DF91CF911F910F91FF90EF90DF90CF9052
:1012A0000895CF92DF92EF92FF920F931F93CF9307
:1012B000DF93CDB7DEB72C970FB6F894DEBF0FBE25
:1012C000CDBF8C010E940E03D801D4968D919C91C4
:1012D000D597DC01ED91FC910284F385E02D099511
:1012E0006BEE71E0CE0107960E94F41FD801DE96E6
:1012F000ED91FC91DF978081882321F0BF016C5F25
:101300007F4F01C0B801CE0107960E94B02062EF66
:1013100071E0CE0107960E94B720BE01695F7F4F42
:10132000CE0101960E94572041E0BE016F5F7F4FC2
:10133000C8010E94C403CE0101960E94861F0E942C
:10134000A01C0E94ED236B017C010E94A01C0E9446
:10135000ED23A70196010E94F02220E030E048EC46
:1013600052E40E94552387FDF0CF6DE672E0CE0176
:1013700001960E94F41F41E0BE016F5F7F4FC801DC
:101380000E94C403CE0101960E94861F0E94A01CE9
:10139000F801618B728B838B948B82E5838F8FE452
:1013A000848FCE0107960E94861F2C960FB6F89464
:1013B000DEBF0FBECDBFDF91CF911F910F91FF9088
:1013C000EF90DF90CF900895FF920F931F93CF93EC
:1013D000DF93CDB7DEB762970FB6F894DEBF0FBECE
:1013E000CDBF8C01DC01D4968D919C91D597DC0109
:1013F000ED91FC910284F385E02D09956DE672E094
:10140000CE010D960E94F41FF80180A5893451F099
:101410008F3429F0843461F469E072E005C064EF30
:1014200071E002C060E072E0CE010D960E946C2077
:1014300061E172E0CE0101960E94F41FBE016F5F70
:101440007F4FC8010E94AA04F82ECE0101960E9487
:10145000861FFF2009F478C06CE172E0CE01079688
:101460000E94F41FD801DE96ED91FC91DF978081F8
:10147000882321F0BF016C5F7F4F01C0B801CE010E
:1014800007960E94B0206EE871E0CE0107960E9498
:10149000B720BE01695F7F4FCE0101960E945720A1
:1014A000BE016F5F7F4FC8010E94AA04F82ECE01D3
:1014B00001960E94861FFF2009F442C0BE01635FAF
:1014C0007F4FCE0101960E94572041E0BE016F5F21
:1014D0007F4FC8010E94C403CE0101960E94861F5F
:1014E000F80184A995A9DC01ED91FC910284F385B2
:1014F000E02D0995F80184A995A9DC01ED91FC91F5
:101500000190F081E02D6AE10995F80184A995A97F
:10151000DC01ED91FC910284F385E02D099569E2EF
:1015200072E0CE0101960E94F41F40E0BE016F5FA1
:101530007F4FC8010E94C403CE0101960E94861FFE
:10154000CE0107960E94861FCE010D960E94861F2F
:1015500062960FB6F894DEBF0FBECDBFDF91CF917C
:101560001F910F91FF9008950F931F93CF93DF93D7
:10157000EC018E858823E1F00E94A01C4F810A8532
:101580001B852C853D85601B710B820B930B24E61C
:10159000429F80011124222717FD2095322F41E020
:1015A000061717072807390708F040E0842F01C005
:1015B00080E0DF91CF911F910F9108950F931F93BA
:1015C000CF93DF9300D000D000D0CDB7DEB78C0131
:1015D000DC01D4968D919C91D597DC01ED91FC9125
:1015E0000284F385E02D099564E372E0CE01019653
:1015F0000E94F41F40E0BE016F5F7F4FC8010E9450
:10160000C403CE0101960E94861F40E0F801678561
:10161000C8010E94A1036FE372E0CE0101960E940F
:10162000F41F41E0BE016F5F7F4FC8010E94C403F9
:10163000CE0101960E94861FD801D4968D919C916F
:10164000D597DC01ED91FC910284F385E02D09959D
:10165000F80180858F5F8087168626960FB6F894EE
:10166000DEBF0FBECDBFDF91CF911F910F910895C7
:10167000EF92FF921F93CF93DF931F92CDB7DEB708
:101680007C01162FDC01D4968D919C91D597DC01BD
:10169000ED91FC910284F385E02D498309950E9428
:1016A000A01CF701628773878487958781E086870E
:1016B00017874981411110860F90DF91CF911F91BB
:1016C000FF90EF9008950F931F93CF93DF9300D077
:1016D00000D000D0CDB7DEB78C0181E0D801909664
:1016E0008C939097D4968D919C91D597DC01ED9138
:1016F000FC910284F385E02D099568E472E0CE0147
:1017000001960E94F41F41E0BE016F5F7F4FC80148
:101710000E94C403CE0101960E94861FF80184A98D
:1017200095A9DC01ED91FC910284F385E02D0995EA
:1017300089E4F801838F848F178E41E06DE4C8013E
:101740000E94380B26960FB6F894DEBF0FBECDBFB1
:10175000DF91CF911F910F9108950F931F93CF9316
:10176000DF93EC0188A18823E1F00E94A01C488946
:1017700009891A892B893C89601B710B820B930B99
:1017800024E6429F80011124222717FD2095322F45
:1017900041E0601771078207930708F440E0842F47
:1017A00001C080E0DF91CF911F910F910895FC015E
:1017B00017A222A5211105C0268D322F3D7F31347D
:1017C00011F40C945109233511F40C94E409089593
:1017D000EF92FF921F93CF93DF931F92CDB7DEB7A7
:1017E0007C01DC0198966C939897D6968C91D6974D
:1017F000811110C0442379F1222369F1D296ED9131
:10180000FC91D39781E00F90DF91CF911F91FF90D2
:10181000EF90099441110AC00E94A01CF70163A334
:1018200074A385A396A381E087A315C011E0D70117
:1018300099961C93C70129830E940E032981F70101
:1018400023A712A7C7010F90DF91CF911F91FF909F
:10185000EF900C94D70B0F90DF91CF911F91FF90D9
:10186000EF900895CF93DF93EC01862F9BA59923EA
:1018700019F0EAA9FBA909951AA61BA6DF91CF9139
:101880000895CF92DF92EF92FF920F931F93CF9321
:10189000DF9300D000D000D0CDB7DEB78C01DC01E3
:1018A0005D961C925D97D4968D919C91D597DC01A5
:1018B000ED91FC910284F385E02D099566E572E0D7
:1018C000CE0101960E94F41F41E0BE016F5F7F4F81
:1018D000C8010E94C403CE0101960E94861F0E9487
:1018E000A01C0E94ED236B017C010E94A01C0E94A1
:1018F000ED23A70196010E94F02220E030E048ECA1
:1019000052E40E94552387FDF0CF6DE672E0CE01D0
:1019100001960E94F41F41E0BE016F5F7F4FC80136
:101920000E94C403CE0101960E94861FF80184A97B
:1019300095A9DC01ED91FC910284F385E02D0995D8
:10194000F80111A6178E108610A28EE4838F848F63
:1019500082A5882321F061E0C8010E94320C2696FE
:101960000FB6F894DEBF0FBECDBFDF91CF911F91B0
:101970000F91FF90EF90DF90CF900895FF920F931B
:101980001F93CF93DF93CDB7DEB72C970FB6F894A4
:10199000DEBF0FBECDBF8C01FC01858D8F5F858FB3
:1019A0008430F0F56DE672E0CE0107960E94F41FD8
:1019B000B801CE0101960E946704BE016F5F7F4FA0
:1019C000CE0107960E946020CE0101960E94861FDC
:1019D000BE01695F7F4FC8010E94A607882341F3BB
:1019E0008B859C850A97B8F0BE01695F7F4FCE0159
:1019F00001960E945720BE016F5F7F4FC8010E9471
:101A0000D602F82ECE0101960E94861FF11003C067
:101A1000C8010E94410CCE0107960E94861F0CC08F
:101A2000843051F40E94A01CF801618B728B838B6F
:101A3000948BC8010E94630B2C960FB6F894DEBFFE
:101A40000FBECDBFDF91CF911F910F91FF900895F1
:101A5000DF92EF92FF920F931F93CF93DF9300D00B
:101A600000D000D0CDB7DEB78C01FC01E680F12CB0
:101A700082A5882329F083A5882311F0EE0CFF1C92
:101A8000CE0101960E945720BE016F5F7F4FC801B3
:101A90000E94AD08D82ECE0101960E94861FDD203F
:101AA000F1F0F801808590E08E159F05ACF482A5D9
:101AB000882359F083A5882341F080A59785981342
:101AC00002C081E401C0F801878740E0F801678522
:101AD000C8010E94380B03C0C8010E94410C269621
:101AE0000FB6F894DEBF0FBECDBFDF91CF911F912F
:101AF0000F91FF90EF90DF900895EF92FF920F9378
:101B00001F93CF93DF9300D000D000D0CDB7DEB7C6
:101B10008C017B01DC019A968C91882309F463C0C7
:101B200067E272E0C7010E941D21882339F1F801A4
:101B300084A995A9DC01ED91FC910284F385E02D47
:101B4000099566E572E0CE0101960E94F41F41E01E
:101B5000BE016F5F7F4FC8010E94C403CE01019692
:101B60000E94861FF80184A995A9DC01ED91FC91E2
:101B70000284F385E02D099561E02EC06EE572E0E8
:101B8000C7010E941D21882309F469C0F80184A9B6
:101B900095A9DC01ED91FC910284F385E02D099576
:101BA00066E572E0CE0101960E94F41F41E0BE019D
:101BB0006F5F7F4FC8010E94C403CE0101960E944F
:101BC000861FF80184A995A9DC01ED91FC9102849E
:101BD000F385E02D099560E0C8010E94320CC80130
:101BE0000E94410C3CC060E672E0C7010E941D21CA
:101BF000882399F0D8019C96ED91FC919D970995C9
:101C00008C3419F441E063E319C08F3419F441E0D6
:101C100061E314C0843419F5E2CF6FEC71E0C701C1
:101C20000E941D21882371F0D8019E96ED91FC91B0
:101C30009F9709958C3449F741E064E3C8010E94FD
:101C4000380B0DC067E272E0C7010E941D21882396
:101C500031F0D801D096ED91FC91D197EACF26963C
:101C60000FB6F894DEBF0FBECDBFDF91CF911F91AD
:101C70000F91FF90EF900895FC0173AB62AB089554
:101C80000F931F93CF93DF93EC018D898823E1F0AD
:101C90000E94A01C4E890F89188D298D3A8D601BDA
:101CA000710B820B930B24E6429F800111242227A3
:101CB00017FD2095322F41E06017710782079307C7
:101CC00008F440E0842F01C080E0DF91CF911F91A4
:101CD0000F910895CF92DF92EF92FF920F931F938F
:101CE000CF93DF9300D000D000D0CDB7DEB78C010A
:101CF000DC01D4968D919C91D597DC01ED91FC91FE
:101D00000284F385E02D099562E672E0CE0101962A
:101D10000E94F41F40E0BE016F5F7F4FC8010E9428
:101D2000C403CE0101960E94861FF80184A995A9DB
:101D3000DC01ED91FC910284F385E02D09950E9470
:101D4000A01C6B017C010E94A01C6C197D098E09EE
:101D50009F096230710581059105A8F36EE672E076
:101D6000CE0101960E94F41F40E0BE016F5F7F4FDD
:101D7000C8010E94C403CE0101960E94861FF8018B
:101D800084A995A9DC01ED91FC910284F385E02DF5
:101D900009950E94A01C6C197D098E099F0962306B
:101DA000710581059105A8F326960FB6F894DEBF5C
:101DB0000FBECDBFDF91CF911F910F91FF90EF909C
:101DC000DF90CF900895CF93DF93EC01CB016AE7CA
:101DD00072E00E941D21882341F0CE010E94410C37
:101DE000CE01DF91CF910C946A0EDF91CF910895CF
:101DF0008F929F92AF92BF92CF92DF92EF92FF921B
:101E00000F931F93CF93DF93CDB7DEB762970FB6D3
:101E1000F894DEBF0FBECDBF8C010E94400E882318
:101E200019F0C8010E943D03D8015B968C915B9725
:101E30008E34A1F497968C91882319F0C8010E94E2
:101E4000D70B7801B7E3EB0EF11CDD24D3949FE4AC
:101E5000C92E22E5B22E39E4A32E73C0893411F0C5
:101E6000823579F7C8010E94AD0B882319F0C801AB
:101E70000E94410CC8010E94B40A882311F3C801D2
:101E80000E94DE0ADECFF80185AD882309F4E4C1A3
:101E90006DE672E0CE010D960E94F41FD801DD962A
:101EA0008C91882309F45CC0B701CE010D960E9485
:101EB0004020F80115AEBE01635F7F4FCE01019651
:101EC0000E945720BE016F5F7F4FC8010E94DB0751
:101ED000982ECE0101960E94861F992009F451C0C8
:101EE000D80199969C9199975B968C919111ACC071
:101EF0008E3409F077C0F801948D9E3409F075C0D6
:101F0000BE01635F7F4FCE0101960E945720BE0144
:101F10006F5F7F4FC8010E94DB07982ECE010196AC
:101F20000E94861F992049F0D8015B96BC925B976E
:101F30005C96AC92C8010E94BE0CCE010D960E9428
:101F4000861FF80184A995A9DC01ED91FC9104801C
:101F5000F581E02D0995181619060CF499CF93CF49
:101F6000B801CE0101960E946704BE016F5F7F4FEA
:101F7000CE010D960E946020CE0101960E94861F20
:101F80009ACFBE01635F7F4FC8010E946E07BE01FA
:101F9000635F7F4F882359F0CE0101960E9457203E
:101FA000BE016F5F7F4FC8010E94230416C0C801A5
:101FB0000E943907BE01635F7F4F882321F0C8016B
:101FC0000E94D5068DCFCE0101960E945720BE01FA
:101FD0006F5F7F4FC8010E94E30ECE0101960E9401
:101FE000861F7ECF823521F486CF993409F488CFBD
:101FF000893451F5F801848D893409F0C8C0BE01D7
:10200000635F7F4FCE0101960E945720BE016F5F34
:102010007F4FC8010E941B08982ECE0101960E9496
:10202000861F992021F0C8010E94410C86CFBE0175
:10203000635F7F4FC8010E94E607BE01635F7F4F69
:10204000882309F4FAC0EBC08E3419F0823509F008
:102050009BC0D8015C969C90BFE49B1295C0BE01CA
:10206000635F7F4FCE0101960E945720BE016F5FD4
:102070007F4FC8010E94E408882ECE0101960E947D
:10208000861FE2E58E120FC00E94A01CD801519657
:102090006D937D938D939C9354975B968C925B97F5
:1020A0005C969C924ACFBE01635F7F4FCE0107963C
:1020B0000E945720BE01695F7F4FC8010E941B0824
:1020C000811117C0BE01635F7F4FCE0101960E9450
:1020D0005720BE016F5F7F4FC8010E94E40899241A
:1020E0009394853409F0912CCE0101960E94861FAD
:1020F00002C099249394CE0107960E94861F9920CE
:10210000C1F0C8010E94410CF80182A5882339F072
:1021100083A5882321F061E0C8010E94320CD80118
:102120005E968C91813409F008CFC8010E94E409C1
:1021300004CFBE01635F7F4FCE0101960E945720FE
:10214000BE016F5F7F4FC8010E94E408982ECE0148
:1021500001960E94861FB9E49B12EFCEF801938E80
:10216000C48E0E94A01CD80151966D937D938D93CF
:102170009C9354979096DC92909741E098966C913E
:10218000C8010E94380BD9CE893409F0D6CEF801A7
:10219000848D8F3409F0D1CEBE01635F7F4FCE01B5
:1021A00007960E945720BE01695F7F4FC8010E94B9
:1021B0001B08811117C0BE01635F7F4FCE010196DE
:1021C0000E945720BE016F5F7F4FC8010E94E40844
:1021D00099249394853409F0912CCE0101960E94A4
:1021E000861F02C099249394CE0107960E94861FF1
:1021F000911019CFD8019A968C919A978823D1F093
:102200009B968C918823B1F0BE01635F7F4FC8011C
:102210000E94E607882371F0BE01635F7F4FCE0105
:1022200001960E945720BE016F5F7F4FC8010E9438
:102230007D0D0DC0BE01635F7F4FCE0101960E94F0
:102240005720BE016F5F7F4FC8010E94280DCE014D
:1022500001960E94861F71CEC8010E948702629675
:102260000FB6F894DEBF0FBECDBFDF91CF911F91A7
:102270000F91FF90EF90DF90CF90BF90AF909F9025
:102280008F9008956F927F928F929F92AF92BF929C
:10229000CF92DF92EF92FF920F93CF93DF93CDB760
:1022A000DEB73C01862FF3016083418322830383E1
:1022B000C582D682E782F08681869286A386B4861E
:1022C00061E00E94781D61E0F30181810E94781D28
:1022D00061E0F30182810E94781D61E0F301808159
:1022E0000E94B11D61E0F30181810E94B11D8AEF5E
:1022F000F301828B88E592E0A0E0B0E0878B908FBD
:10230000A18FB28F86E085878EE4868F8A899B892C
:1023100094A383A38C899D8996A385A38E899F8985
:1023200090A787A3158E138E148EDF91CF910F91F6
:10233000FF90EF90DF90CF90BF90AF909F908F90E5
:102340007F906F900895CF93DF93EC0160E08A81D6
:102350000E94B11D61E088810E94B11D61E0898108
:102360000E94B11D1D8E0E94A01C6B8B7C8B8D8BDF
:102370009E8B81E08C8FDF91CF910895CF93DF9377
:10238000EC018EE48E8F60E08A810E94B11D61E0D5
:1023900088810E94B11D61E089810E94B11D1B8E60
:1023A000DF91CF910895CF93DF93EC0182E48E8F7C
:1023B0001C8E61E08A810E94B11D61E088810E94CB
:1023C000B11D60E089810E94B11D81E08B8FDF919A
:1023D000CF910895CF92DF92EF92FF92CF93DF9348
:1023E000EC018C8D8823C9F18E8D8335D9F40E9440
:1023F000A01C6B017C014B895C896D897E89C41AA4
:10240000D50AE60AF70A2F89388D498D5A8DA4E638
:10241000B0E00E945B2521E0C616D706E806F90663
:10242000E8F419C00E94A01C2A89CB88DC88ED88BA
:10243000FE886C197D098E099F0934E6239F60018F
:102440001124EE24D7FCE094FE2C21E06C157D05D0
:102450008E059F0518F420E001C001C0822FDF9196
:10246000CF91FF90EF90DF90CF900895CF93DF93BF
:10247000EC018E8D893419F4EBA1FCA109C08434E0
:1024800019F4EDA1FEA104C0833519F4EFA1F8A55C
:1024900009951C8EDF91CF910895FC01858D8823CD
:1024A00011F0868D0895838D882311F082E40895BC
:1024B0008EE40895CF92DF92EF92FF920F931F93D5
:1024C000CF93DF93EC0161E08A810E94B11D8B8183
:1024D0000E94321D0EE110E0C12CD12C76018B81BF
:1024E0000E94321DAC01662757FD6095762FC40E01
:1024F000D51EE61EF71E0150110989F7C701B60166
:102500000E94ED2320E030E040EC55E40E94592386
:10251000DF91CF911F910F91FF90EF90DF90CF90BF
:102520000895CF92DF92EF92FF921F93CF93DF93A4
:10253000EC018C81882311F011E01CC01B8D11234C
:10254000C9F0CE010E945A126B017C012D813E819F
:102550004F8158850E945523181674F711E02F8D6E
:1025600038A149A15AA1C701B6010E9455231816E6
:102570000CF410E0812FDF91CF911F91FF90EF902D
:10258000DF90CF900895CF92DF92EF92FF92CF939A
:10259000DF93EC010E945A126B017C012D813E8178
:1025A0004F8158850E945523181664F429853A8571
:1025B0004B855C85C701B6010E949F2487FD04C03E
:1025C00083E503C086E401C08EE4DF91CF91FF90E4
:1025D000EF90DF90CF900895CF93DF93EC010E94AE
:1025E000C3128634D1F08D8D811117C089E48E8F8E
:1025F00061E08A810E94B11D60E089810E94B11D65
:1026000061E088810E94B11D0E94A01C6E877F87B7
:10261000888B998B81E08D8F01C080E0DF91CF9115
:102620000895CF93DF93EC010E94C3128335D1F05C
:102630008D8D811117C084E48E8F61E08A810E94A4
:10264000B11D60E088810E94B11D61E089810E9416
:10265000B11D0E94A01C6E877F87888B998B81E0BB
:102660008D8F01C080E0DF91CF910895CF93DF93EC
:10267000EC010E94C3128335D9F08D8D811118C0F1
:1026800083E58E8FCE010E945A126F8F78A389A3A3
:102690009AA361E08A810E94B11D60E088810E9456
:1026A000B11D61E089810E94B11D81E08D8F01C063
:1026B00080E0DF91CF9108950F931F93CF938C010A
:1026C000FC01C58DCC2361F10E94C312F801968DE7
:1026D000833519F4943431F423C0863429F49934C1
:1026E00019F41EC09335E1F09335C9F00E94A01C87
:1026F000F80145850685178520893189601B710B96
:10270000820B930BF4E64F9F80011124222717FDC3
:102710002095322F601771078207930708F4C0E0F5
:102720008C2FCF911F910F910895CF93DF93EC01E0
:102730000E945C13882319F0CE010E94A311CE01E0
:102740000E94EA11882319F0CE010E943612CE01B0
:102750000E949112882329F0CE01DF91CF910C9431
:10276000BE11DF91CF910895EF92FF920F931F93C7
:10277000CF93DF931F92CDB7DEB77C01FC010081C0
:102780001181C80169830E94F2276981681719F0D5
:10279000C8010E94FA27C7010F90DF91CF911F91C6
:1027A0000F91FF90EF9008950F931F93CF93DF93B6
:1027B00000D0CDB7DEB78C01FC0160811A8219828E
:1027C000CE0101960E94B413F801618181E090E08E
:1027D0009A838983CE0101960E94B413C8010F9099
:1027E0000F90DF91CF911F910F9108950F931F9339
:1027F000CF93DF9300D0CDB7DEB78C01FC016081B1
:1028000084E090E09A838983CE0101960E94B413FC
:10281000C8010F900F90DF91CF911F910F910895F4
:10282000CF93DF9300D0CDB7DEB77A836983CE0133
:1028300001960E94D4130F900F90DF91CF910895CD
:10284000EF92FF920F931F93CF93DF93EC016DE60E
:1028500072E004960E94F41F8E01065F1F4F7E01F6
:1028600082E2E80EF11C6DE672E0C8010E94F41FDE
:102870000A5F1F4F0E151F05B1F71882DF91CF9128
:102880001F910F91FF90EF900895EF92FF920F9399
:102890001F93CF93DF93EC018B018881882311F183
:1028A000CE0104960E940A2181111EC0F12C86E0FF
:1028B000E82E4F2D50E0288130E021503109421799
:1028C000530784F4E49EC001E59E900D11240A96FE
:1028D000B8018C0F9D1F0E940A21F394882349F3AD
:1028E0008F2D03C08FEF01C080E0DF91CF911F914A
:1028F0000F91FF90EF900895EF92FF920F931F9327
:10290000CF93DF9300D0CDB7DEB78C0180E090E0AD
:102910000E94F227F801828381E090E00E94F22772
:10292000F801838382819381019669F494EFE92E03
:10293000FF24F394FA82E982CE0101960E94D41317
:10294000F801F382E2820F900F90DF91CF911F91F7
:102950000F91FF90EF9008950F931F93CF93DF9304
:102960008C01FC0110826DE672E004960E946C20DE
:10297000C0E0D0E0065F1F4F6DE672E0C8018C0F2B
:102980009D1F0E946C202696C831D105A9F7DF91C2
:10299000CF911F910F910895AF92BF92CF92DF9286
:1029A000EF92FF920F931F93CF93DF931F92CDB7B8
:1029B000DEB75C01611107C081E0F50180832CE284
:1029C00003E110E00AC0FC0110826DE672E004969B
:1029D0000E946C2027E308E010E0E12CF12C650157
:1029E000FAE0CF0ED11C6DE672E0C6018E0D9F1D80
:1029F00029830E946C2086E0E80EF11C2981E8E121
:102A0000EE16F10481F7E22EF12CE016F10638F013
:102A10006FEFC8010E94FA270F5F1F4FF6CFC50165
:102A20000F90DF91CF911F910F91FF90EF90DF906A
:102A3000CF90BF90AF900C94F613CF92DF92EF92AD
:102A4000FF920F931F93CF93DF937B018A0169015C
:102A5000611584E0780728F52115310511F1213041
:102A6000310519F4FA01108225C0CB010E94F2272A
:102A7000F8018083C1E0D0E08823E1F0CC15DD05CA
:102A800094F4FFEFEF1AFF0AE11484E0F80659F01E
:102A9000C7010E94F227F801EC0FFD1F80832196E9
:102AA000EBCF80E008C01C161D0624F4C00FD11F18
:102AB0002197188281E0DF91CF911F910F91FF90B4
:102AC000EF90DF90CF900895CF92DF92EF92FF9238
:102AD0000F931F93CF93DF93CDB7DEB78C01CB015C
:102AE000BA01CDB6DEB62F5F3F4F4DB75EB7421B82
:102AF000530B0FB6F8945EBF0FBE4DBF4F5F5F4FD5
:102B00007A010E941D15B701C8010E94F41FC80177
:102B10000FB6F894DEBE0FBECDBEDF91CF911F91F0
:102B20000F91FF90EF90DF90CF900895EF92FF927A
:102B30000F931F93CF93DF9300D000D000D0CDB779
:102B4000DEB78C0184E090E00E94F227F8018083D8
:102B500081508E3F08F040C02BE030E048E050E06C
:102B6000B801CE0101960E946415BE016F5F7F4FD0
:102B7000C80104960E946020CE0101960E94861F23
:102B8000FF24F39426E0E22EF8018081F81638F550
:102B9000FBE0FF9EA0011124485F5F4F2AE030E078
:102BA000B801CE0101960E9464152F2D30E021500E
:102BB0003109E29EC001E39E900D11240A96BE01E8
:102BC0006F5F7F4F800F911F0E946020CE010196A2
:102BD0000E94861FF394D8CFC8010E94AC14269699
:102BE0000FB6F894DEBF0FBECDBFDF91CF911F911E
:102BF0000F91FF90EF900895CF93DF93EC010E9427
:102C00007C14CE01DF91CF910C949615CF92DF9278
:102C1000EF92FF920F931F93CF93DF937B01690194
:102C2000611524E07207B8F4CB018C0D9D1D811550
:102C3000944088F4EA0100E010E00C151D054CF406
:102C40006991C8018E0D9F1D0E94FA270F5F1F4FCB
:102C5000F4CF81E001C080E0DF91CF911F910F910F
:102C6000FF90EF90DF90CF900895FA01019000203F
:102C7000E9F79F01241B350B0C940616AF92BF9207
:102C8000CF92DF92EF92FF920F931F93CF93DF9338
:102C9000CDB7DEB76C015B01CA01EDB6FEB6FA0135
:102CA000448155814F5F5F4F2DB73EB7241B350BD5
:102CB0000FB6F8943EBF0FBE2DBF0DB71EB70F5F06
:102CC0001F4F20E030E0B8010E948221A801B50129
:102CD000C6010E9435160FB6F894FEBE0FBEEDBEBB
:102CE000DF91CF911F910F91FF90EF90DF90CF90E8
:102CF000BF90AF900895EF92FF920F931F93CF93E1
:102D0000DF9300D000D000D0CDB7DEB78C010E9499
:102D1000F613F80180818823E9F1B8016C5F7F4FD9
:102D2000CE0101960E945720AE014F5F5F4F68E0D1
:102D300070E0C8010E943E16CE0101960E94861FD7
:102D4000FF24F39436E0E32EF8018081F81610F5A5
:102D50008F2D90E00197E89EB001E99E700D11243F
:102D6000665F7F4F600F711FCE0101960E94572052
:102D7000FBE0FF9EB0011124685F7F4FAE014F5F03
:102D80005F4FC8010E943E16CE0101960E94861F29
:102D9000F394DACF26960FB6F894DEBF0FBECDBF00
:102DA000DF91CF911F910F91FF90EF900895DF92E7
:102DB000EF92FF920F931F93CF93DF9300D000D039
:102DC00000D0CDB7DEB78C017B01FB0184819581FA
:102DD0000A9711F080E037C0F80180818530D1F387
:102DE000CE0101960E945720BE016F5F7F4FC80140
:102DF0000E944514D82ECE0101960E94861FFFEF37
:102E0000DF12E8CFF8012081211104C0B701C80109
:102E100004960FC0253078F430E02150310946E0A7
:102E2000429FC001439F900D11240A96B701800F65
:102E3000911F0E944020F80180818F5F8083C8012C
:102E40000E947B1681E026960FB6F894DEBF0FBE77
:102E5000CDBFDF91CF911F910F91FF90EF90DF9049
:102E60000895EF92FF920F931F93CF93DF9300D0BB
:102E700000D000D0CDB7DEB78C01FB0184819581F5
:102E80000A9711F080E050C0F80180818230D0F3C1
:102E9000CE0101960E945720BE016F5F7F4FC8018F
:102EA0000E944514F82ECE0101960E94861F8FEFD6
:102EB0008F0D8E3F38F74F2D50E04150510986E07D
:102EC000849F9001859F300D1124265F3F4F6DE652
:102ED00072E0C801820F931F0E946C2046E0E42E2E
:102EE000F8018081F816D0F42F2D30E0E29EB00179
:102EF000E39E700D1124665F7F4F600F711FA90163
:102F000041505109E49EC001E59E900D11240A969E
:102F1000800F911F0E944020F394E2CF8150808364
:102F2000C8010E947B1681E026960FB6F894DEBF9A
:102F30000FBECDBFDF91CF911F910F91FF90EF900A
:102F400008950895089520E041E06AE584E193E062
:102F50000C94E80B20E041E062E484E193E00C94FF
:102F6000E80B21E041E066E484E193E00E94E80B95
:102F700086E48093120308958EE48093120320E088
:102F800040E063E484E193E00C94E80B8DEC92E084
:102F90000C944D128DEC92E00E94EC12882311F0FB
:102FA00084E408958CE408958DEC92E00E9411135E
:102FB000882311F084E408958CE40895809113032C
:102FC000882321F08DEC92E00E94D31186EF92E0ED
:102FD0000E9475028EE48093120320E040E06FE4CB
:102FE00084E193E00C94E80B86EF92E00E94D2011A
:102FF00020E030E0A9010E945523882321F0809130
:103000000903811102C08FE408958DEC92E00E94C3
:103010003613882329F081E08093130384E4089514
:103020008CE40895882329F080910903811109C057
:1030300004C086EF92E00E9475028EE48093120332
:1030400008950E94F417F9CF82E00E94E71D892BB2
:10305000E9F480910E0390910F03A0911003B091B9
:10306000110380930A0390930B03A0930C03B09376
:103070000D030E94A01C60930E0370930F038093B6
:1030800010039093110381E080930803089584E571
:1030900093E00E94FC1562E178E184E193E00E94F4
:1030A0003C0E24EF37E144ED57E16AEC77E184E12F
:1030B00093E00E948E022CEB37E14EED57E161EB7D
:1030C00077E186EF92E00E94CA0164E573E084E153
:1030D00093E00E94D20264E573E086EF92E00E94E2
:1030E0007C0110921303089580919503811107C00C
:1030F0000E94A01C693873418105910580F486EF18
:1031000092E00E94780284E193E00E94F80E8DEC38
:1031100092E00E94951380EC92E00C943C010E9496
:10312000A01C84E193E00E94570581110DC060E06E
:1031300083E00E94B11D60E084E00E94B11D68EE52
:1031400073E080E090E00CC060E083E00E94B11D7D
:1031500060E084E00E94B11D60ED77E080E090E0E7
:103160000E94CF1C61E083E00E94B11D61E084E019
:103170000E94B11D81E08093950341E050E064E23C
:1031800078E180E00E94E81B80EC92E00C9426013C
:103190008F929F92AF92BF92CF92DF92EF92FF9267
:1031A0000F931F9320E046E065E086E793E00E94DE
:1031B000291B84E593E00E94201448E066E773E051
:1031C00084E193E00E947D0323EE33E044EF51E07D
:1031D00062E086EF92E00E947A0183EA97E19F9392
:1031E0008F9382EA97E19F938F9381EA97E19F9370
:1031F0008F9383EE93E09F938F938AE9882E89E9DA
:10320000982E89EDA82E8FE3B82E9AE9C92E99E958
:10321000D92EED2C9EE3F92E0EE029E044E063E088
:103220008DEC92E00E94421123EEE22E23E0F22E7A
:1032300006EC17E12AEA37E14FE06DE080EC92E01E
:103240000E948E008DB79EB708960FB6F8949EBF69
:103250000FBE8DBF6DE672E08AEB92E01F910F9179
:10326000FF90EF90DF90CF90BF90AF909F908F90A6
:103270000C94F41F8AEB92E00E94861F8BE493E08B
:103280000E94861F84E193E00E94861F8EE593E0F2
:10329000892B41F488E593E00E94861F86E793E03E
:1032A0000C94D01A80E793E00E94861F8AE693E090
:1032B0000E94861F84E693E00E94861F8EE593E0BD
:1032C0000E94861FE7CF2091D8033091D903281799
:1032D0003907B9F49091960380919703981789F074
:1032E000E0919603F0E0E856FC4F80812091960330
:1032F00030E02F5F3F4F2F7333272093960390E0EA
:1033000008958FEF9FEF08951F93CF93DF93DC0114
:103310005C968D919C915D97009749F481E090E0D7
:1033200013969C938E93129780E090E03BC0519649
:10333000ED91FC91529750962C915097322F3095E9
:103340001FB75E964C915E9741FB772770F941FD60
:103350006095F8944081772311F0422B01C04323FC
:103360004083EC012197F1F748E0508160FF02C0F3
:10337000522B01C053235083EC012197F1F766953E
:10338000415099F78081772311F0832301C0822B6C
:1033900080831FBF5C968D919C915D970197F1F79B
:1033A00081E090E0DF91CF911F9108952091D803A3
:1033B0003091D9032817390781F4909196038091B1
:1033C0009703981751F0E0919603F0E0E856FC4F10
:1033D0008081992787FD909508958FEF9FEF08953D
:1033E0002091D8033091D9032817390771F48091BF
:1033F00097032091960390E0805C9F4F821B910978
:1034000060E470E00E940625089580E090E0089551
:103410002091D8033091D9032817390739F48FB791
:10342000F89410929703109296038FBF0895E0913D
:10343000D803F091D903E817F90769F4A389B4898F
:103440009C918589809589238C931092D903109241
:10345000D80381E0089580E00895CF93DF93EC01D5
:103460008A8D9B8D892BF1F08091D8039091D9039F
:103470008C179D07B9F0009711F00E94171A8E8DD6
:103480008E7F8E8F1092970310929603D093D9035C
:10349000C093D803EB89FC8980819D89892B808327
:1034A00081E001C080E0DF91CF9108951F920F92DB
:1034B0000FB60F9211242F933F934F935F936F9307
:1034C0007F938F939F93AF93BF93EF93FF93E0917D
:1034D000D803F091D903309709F451C0868DA685A1
:1034E000B785958581FF04C08C91892329F447C055
:1034F0008C91892309F043C0A389B4899C91858963
:10350000809589238C93868997890197F1F7208D7F
:10351000318DA685B785758558E040E0C9010197D2
:10352000F1F7842F90E095958795482F6C9167234C
:1035300009F04068515091F7868D81FD409580914A
:10354000970390E001968F7399272091960328178F
:1035500049F0A0919703B0E0A856BC4F4C938093DC
:10356000970303C0868D8160868F828D938D01972E
:10357000F1F7A389B4898C919589892B8C93FF915C
:10358000EF91BF91AF919F918F917F916F915F91DB
:103590004F913F912F910F900FBE0F901F90189554
:1035A00020E932E0FC01318320830C94171A1F9329
:1035B000CF93DF93EC01162F6E8D6695617081E0DD
:1035C0006827812F0E94B11D61E0812F0E94781D24
:1035D000812F90E0FC01E458FF4FE491E88BFC015F
:1035E000E057FF4FE491F0E0EE0FFF1FE255FF4F71
:1035F000859194919A8B898BDF91CF911F9108953A
:103600001F93CF93DF93EC01162F60E0812F0E9470
:10361000781D8E8D81FD04C061E0812F0E94B11D57
:103620001C87812F90E0FC01E458FF4FE491ED8767
:10363000FC01E057FF4FE491F0E0EE0FFF1FEC5567
:10364000FF4F859194919F878E87DF91CF911F9136
:103650000895FF920F931F93CF93DF93EC01F62E03
:10366000522F1B821A8208EE13E020E030E00C8318
:103670001D832E833F8380E992E0998388831F8A8C
:103680001E8A198E188E1B8E1A8E1D8E1C8E8E8D84
:103690008E7F50FB81F98E8F642FCE010E94D71A46
:1036A0006F2DCE01DF91CF911F910F91FF900C9460
:1036B000001BCF93DF93EC019A01AB011B8E1A8E96
:1036C000198E188E1F8A1E8A60E079E08DE390E0E3
:1036D0000E943C25C9012430310520F0B901635016
:1036E000710902C061E070E07D8F6C8FEC85E6317E
:1036F00008F068C0B901769567956431710518F0D6
:103700006351710902C061E070E07F8B6E8B069798
:1037100018F0C901059702C081E090E0998F888F69
:10372000C901880F991F820F931F969587959695CB
:1037300087958D30910510F00C9702C081E090E0E4
:103740009B8F8A8F20916800E83050F091E0EE3036
:1037500008F490E081E001C0880F9A95EAF701C073
:1037600084E0822B809368002C85283038F02E303E
:1037700040F0263148F48CE690E008C08DE690E0F9
:1037800005C08BE690E002C080E090E09C8B8B8BC4
:10379000283030F481E001C0880F2A95EAF70DC087
:1037A000822F90E02E3010F4089701C00E9791E020
:1037B00001C0990F8A95EAF7892F8D8B8C8D9D8D8D
:1037C0000197F1F7CE01DF91CF910C942D1A089556
:1037D0008230E8F4E82FF0E0EE0FFF1FEA5FFE4FC3
:1037E00071836083813041F0809169008C7F842BEC
:1037F00080936900E89A089580916900440F551FED
:10380000440F551F837F842B80936900E99A0895A4
:103810001F920F920FB60F9211242F933F934F9345
:103820005F936F937F938F939F93AF93BF93EF9328
:10383000FF93E0910601F09107010995FF91EF9147
:10384000BF91AF919F918F917F916F915F914F91B8
:103850003F912F910F900FBE0F901F9018951F92C0
:103860000F920FB60F9211242F933F934F935F93B4
:103870006F937F938F939F93AF93BF93EF93FF9338
:10388000E0910801F09109010995FF91EF91BF9135
:10389000AF919F918F917F916F915F914F913F91E8
:1038A0002F910F900FBE0F901F9018951F920F929F
:1038B0000FB60F9211242F933F938F939F93AF9343
:1038C000BF938091DB039091DC03A091DD03B09165
:1038D000DE033091DA0323E0230F2D3720F4019625
:1038E000A11DB11D05C026E8230F0296A11DB11D23
:1038F0002093DA038093DB039093DC03A093DD0332
:10390000B093DE038091DF039091E003A091E10387
:10391000B091E2030196A11DB11D8093DF03909346
:10392000E003A093E103B093E203BF91AF919F91B5
:103930008F913F912F910F900FBE0F901F90189570
:103940002FB7F8946091DB037091DC038091DD0365
:103950009091DE032FBF08953FB7F8948091DF0365
:103960009091E003A091E103B091E20326B5A89BFA
:1039700005C02F3F19F00196A11DB11D3FBF66275D
:10398000782F892F9A2F620F711D811D911D42E0A2
:10399000660F771F881F991F4A95D1F70895CF9218
:1039A000DF92EF92FF92CF93DF936B017C010E9435
:1039B000AC1CEB01C114D104E104F10489F00E94B4
:1039C0000C220E94AC1C6C1B7D0B683E734090F374
:1039D00081E0C81AD108E108F108C851DC4FEACFEC
:1039E000DF91CF91FF90EF90DF90CF900895789482
:1039F00084B5826084BD84B5816084BD85B58260F4
:103A000085BD85B5816085BDEEE6F0E08081816091
:103A10008083E1E8F0E01082808182608083808191
:103A200081608083E0E8F0E0808181608083E1EB69
:103A3000F0E0808184608083E0EBF0E08081816051
:103A40008083EAE7F0E08081846080838081826007
:103A500080838081816080838081806880831092F0
:103A6000C10008958E3008F08E50877020910A01B1
:103A700090E4299F90011124822B80937C008091F7
:103A80007A00806480937A0080917A0086FDFCCF72
:103A9000809178002091790090E0922B08958330F6
:103AA00081F028F4813099F08230A1F008958730B8
:103AB000A9F08830B9F08430D1F4809180008F7DF6
:103AC00003C0809180008F7780938000089584B533
:103AD0008F7702C084B58F7D84BD08958091B0003A
:103AE0008F7703C08091B0008F7D8093B0000895E0
:103AF000CF93DF9390E0FC01E458FF4F2491FC0149
:103B0000E057FF4F8491882349F190E0880F991F77
:103B1000FC01E854FF4FA591B49182559F4FFC01E1
:103B2000C591D4919FB7611108C0F8948C912095EC
:103B300082238C93888182230AC0623051F4F894E6
:103B40008C91322F309583238C938881822B8883AC
:103B500004C0F8948C91822B8C939FBFDF91CF91FE
:103B600008950F931F93CF93DF931F92CDB7DEB7C6
:103B7000282F30E0F901E859FF4F8491F901E4580A
:103B8000FF4F1491F901E057FF4F04910023C9F052
:103B9000882321F069830E944F1D6981E02FF0E0A6
:103BA000EE0FFF1FE255FF4FA591B4919FB7F89418
:103BB0008C91611103C01095812301C0812B8C93DE
:103BC0009FBF0F90DF91CF911F910F910895CF93D9
:103BD000DF93282F30E0F901E859FF4F8491F90174
:103BE000E458FF4FD491F901E057FF4FC491CC2323
:103BF00091F081110E944F1DEC2FF0E0EE0FFF1F9E
:103C0000EC55FF4FA591B4912C912D2381E090E0CC
:103C100021F480E002C080E090E0DF91CF91089530
:103C20001F920F920FB60F9211242F938F939F9391
:103C3000EF93FF93E091F303F091F4038081E0911F
:103C4000F903F091FA0382FD12C090818091FC0388
:103C50008F5F8F732091FD03821751F0E091FC0379
:103C6000F0E0ED51FC4F958F8093FC0301C0808103
:103C7000FF91EF919F918F912F910F900FBE0F9019
:103C80001F9018951F920F920FB60F9211242F9329
:103C90003F934F935F936F937F938F939F93AF93D4
:103CA000BF93EF93FF9383EE93E00E944822FF912E
:103CB000EF91BF91AF919F918F917F916F915F91A4
:103CC0004F913F912F910F900FBE0F901F9018951D
:103CD00083EE93E00E940D2221E0892B09F420E07D
:103CE000822F08951092E6031092E50388EE93E088
:103CF000A0E0B0E08093E7039093E803A093E9038A
:103D0000B093EA038EEA92E09093E4038093E30396
:103D100085EC90E09093F0038093EF0384EC90E0C7
:103D20009093F2038093F10380EC90E09093F4037E
:103D30008093F30381EC90E09093F6038093F50376
:103D400082EC90E09093F8038093F70386EC90E088
:103D50009093FA038093F9031092FC031092FD03F1
:103D60001092FE031092FF030895CF92DF92EF921C
:103D7000FF920F931F93CF93DF937C016A01EB01B6
:103D800000E010E00C151D0571F06991D701ED916F
:103D9000FC910190F081E02DC7010995892B19F064
:103DA0000F5F1F4FEFCFC801DF91CF911F910F9190
:103DB000FF90EF90DF90CF9008956115710581F02D
:103DC000DB010D900020E9F7AD0141505109461B80
:103DD000570BDC01ED91FC910280F381E02D0994F9
:103DE00080E090E00895DC01ED91FC91DB011496F8
:103DF0004D915C9115976D917C910280F381E02D3E
:103E00000994DC01ED91FC910190F081E02D099481
:103E10006BE672E00C94DD1E0F931F93CF93DF933C
:103E2000EC010E94F31E8C01CE010E94081F800F3E
:103E3000911FDF91CF911F910F9108950F931F93C1
:103E4000CF93DF93EC010E94011F8C01CE010E94F1
:103E5000081F800F911FDF91CF911F910F9108953F
:103E60000F931F93CF93DF93EC010E94A01C6887F0
:103E700079878A879B87E881F9810680F781E02D21
:103E8000CE01099597FF15C00E94A01C08851985D1
:103E90002A853B85601B710B820B930B0C811D8166
:103EA0002E813F81601771078207930720F38FEF00
:103EB0009FEFDF91CF911F910F910895EF92FF92A5
:103EC0000F931F93CF93DF93EC018B01E42E6DE6EC
:103ED00072E00E94F41FC8010E94301FFF24E7FC1B
:103EE000F09497FD0BC08E159F0541F0682FCE0111
:103EF0000E94C720C8010E94301FF3CFCE01DF917E
:103F0000CF911F910F91FF90EF900895FC01808158
:103F100091810C942726CF93DF93EC0188819981BE
:103F2000009711F00E942726198218821D821C8298
:103F30001B821A82DF91CF9108950F931F93CF9325
:103F4000DF93EC018B016F5F7F4F888199810E9425
:103F5000B626009731F0998388831B830A8381E01A
:103F600001C080E0DF91CF911F910F910895CF9311
:103F7000DF93EC0188819981892B29F08A819B81CB
:103F80008617970760F4CE010E949D1F882341F099
:103F90008C819D81892B19F4E881F981108281E05F
:103FA000DF91CF910895EF92FF920F931F93CF93DC
:103FB000DF93EC017B018A01BA010E94B71F8111D6
:103FC00004C0CE010E948B1F07C01D830C83B70164
:103FD000888199810E94B927CE01DF91CF911F91ED
:103FE0000F91FF90EF900895FC01118210821382CF
:103FF0001282158214826115710559F0FB0101903E
:104000000020E9F7AF0141505109461B570B0C94B2
:10401000D31F08950F931F93CF93DF938C01EB0170
:10402000FC0180819181009799F0428153812C811C
:104030003D814217530750F0688179810E94B9276A
:104040008C819D81F8019583848313C00E9427266B
:1040500088819981F801918380838A819B819383F0
:1040600082838C819D8195838483198218821B822F
:104070001A821D821C82DF91CF911F910F910895AA
:10408000CF93DF93EC01FB018617970761F0608106
:1040900071816115710529F0448155810E94D31FFA
:1040A00002C00E948B1FCE01DF91CF910895FC01C9
:1040B0001182108213821282158214820C94402085
:1040C000CF93DF93EC018617970711F00E940A2027
:1040D000CE01DF91CF910895CF93DF93EC0161156D
:1040E000710561F0FB0101900020E9F7AF0141503B
:1040F0005109461B570B0E94D31F02C00E948B1F01
:10410000CE01DF91CF910895EF92FF920F931F930D
:10411000CF93DF93EC017B010C811D81611571054B
:1041200011F480E016C04115510591F0040F151FE0
:10413000B8010E94B71F8823A1F3288139818C819F
:104140009D81B701820F931F0E94B9271D830C83A5
:1041500081E0DF91CF911F910F91FF90EF90089533
:10416000FB0144815581608171810C94842061152B
:10417000710559F0FB0101900020E9F7AF014150B2
:104180005109461B570B0C94842080E00895CF936F
:10419000DF9300D0CDB7DEB769831A8241E050E0EB
:1041A000BE016F5F7F4F0E9484200F900F90DF91C0
:1041B000CF910895CF93DF93DC01ED91FC91EB015A
:1041C000A881B981309711F01097C9F4109759F070
:1041D000EB012C813D81232B31F08C9190E0919566
:1041E0008195910914C0309781F0DC0114968D916E
:1041F0009C911597892B49F0808190E008C0BD0102
:10420000CF01DF91CF910C94B02780E090E0DF9157
:10421000CF910895FC0144815581FB0124813581B2
:104220004217530741F40E94DA2021E0892B09F05C
:1042300020E0822F089580E00895FC0124813581DB
:10424000232B31F421E061157105A1F0FB0108C0B9
:10425000FC01808191816115710531F421E0FC013F
:104260008081882339F005C00E94B02721E0892B86
:1042700009F020E0822F0895FA01DB0114964D9198
:104280005C911597DC0114962D913C911597241B98
:10429000350B2E173F0788F08D919C91009769F0A0
:1042A000DB016D917C916115710539F08E0F9F1FB7
:1042B0000E94C02721E0892B09F020E0822F089579
:1042C000FC0144815581FB0124813581421753074C
:1042D00020F040E050E00C943C2180E00895FC0187
:1042E000248135816217730748F48081918100979A
:1042F00029F0FC01E60FF71F8081089580E0089502
:104300000C946F210F931F93CF93DF93EB01411513
:104310005105E9F02097D9F0FC01648175812617D9
:104320003707A0F4621B730B8A0101501109601753
:10433000710708F48B01FC0160817181620F731FAA
:10434000A801CE010E94CE27C00FD11F1882DF9195
:10435000CF911F910F910895BF92CF92DF92EF926C
:10436000FF920F931F93CF93DF936C017B01EA01C0
:1043700089012417350720F48D2FE901042F182F08
:104380006DE672E0C6010E94F41FD70114968D916C
:104390009C911597C817D907C8F48017910708F49E
:1043A0008C01D701ED91FC911197E00FF11FB080C6
:1043B00010826D917C916C0F7D1FC6010E946C2054
:1043C000D701ED91FC91E00FF11FB082C601DF91A2
:1043D000CF911F910F91FF90EF90DF90CF90BF9002
:1043E0000895FC0180819181009711F00C94802741
:1043F00060E070E0CB01089508950E94F71C0E94D0
:10440000FC210E944718CAE3D2E20E947418209748
:10441000E1F30E943A22F9CF0895FC01818D228DAB
:1044200090E0805C9F4F821B91098F7399270895BC
:10443000FC01918D828D981731F0828DE80FF11D6E
:10444000858D90E008958FEF9FEF0895FC01918D89
:10445000828D981761F0828DDF01A80FB11D5D96E6
:104460008C91928D9F5F9F73928F90E008958FEF54
:104470009FEF089588E69EE1892B49F080E090E067
:10448000892B29F00E94681E81110C940000089568
:10449000FC01848DDF01A80FB11DA35ABF4F2C91E1
:1044A000848D90E001968F739927848FA689B789B0
:1044B0002C93A089B1898C9180648C93938D848D89
:1044C000981306C00288F389E02D80818F7D808358
:1044D0000895CF93DF93EC01888D8823C9F0EA8992
:1044E000FB89808185FD05C0A889B9898C9186FDED
:1044F0000FC00FB607FCF5CF808185FFF2CFA889EA
:10450000B9898C9185FFEDCFCE010E944822E7CF7B
:10451000DF91CF910895CF92DF92FF920F931F9377
:10452000CF93DF931F92CDB7DEB76C0181E0D60148
:1045300058968C9358975B969C915B975C968C9160
:104540005C97981307C05096ED91FC91519780812C
:1045500085FD2EC0F601038D10E00F5F1F4F0F7316
:104560001127F02EF601848DF81211C00FB607FC4A
:10457000F9CFD6015096ED91FC915197808185FF3E
:10458000F1CFC60169830E9448226981EBCF838DF8
:10459000E80FF11DE35AFF4F6083D6015B960C9341
:1045A0005B975296ED91FC915397808180620CC08D
:1045B000D6015696ED91FC91579760835096ED91F8
:1045C000FC91519780818064808381E090E00F901E
:1045D000DF91CF911F910F91FF90DF90CF900895C1
:1045E0005058BB27AA270ED070C161D130F066D1D8
:1045F00020F031F49F3F11F41EF456C10EF4E09503
:10460000E7FB4CC1E92F72D180F3BA176207730739
:104610008407950718F071F49EF58AC10EF4E095B1
:104620000B2EBA2FA02D0B01B90190010C01CA016C
:10463000A0011124FF27591B99F0593F50F4503E17
:1046400068F11A16F040A22F232F342F4427585F09
:10465000F3CF469537952795A795F0405395C9F721
:104660007EF41F16BA0B620B730B840BBAF09150D9
:10467000A1F0FF0FBB1F661F771F881FC2F70EC078
:10468000BA0F621F731F841F48F48795779567954B
:10469000B795F7959E3F08F0B3CF9395880F08F034
:1046A0009927EE0F979587950895D4D008F481E067
:1046B00008950CD00AC102D140F0F9D030F021F4B5
:1046C0005F3F19F0EBC0511134C1EEC00FD198F328
:1046D0009923C9F35523B1F3951B550BBB27AA2783
:1046E00062177307840738F09F5F5F4F220F331FF5
:1046F000441FAA1FA9F333D00E2E3AF0E0E830D0C1
:1047000091505040E695001CCAF729D0FE2F27D0C3
:10471000660F771F881FBB1F261737074807AB0791
:10472000B0E809F0BB0B802DBF01FF2793585F4F06
:104730002AF09E3F510568F0B1C0FBC05F3FECF32B
:10474000983EDCF3869577956795B795F7959F5FCB
:10475000C9F7880F911D9695879597F90895E1E01F
:10476000660F771F881FBB1F621773078407BA077E
:1047700020F0621B730B840BBA0BEE1F88F7E095D9
:104780000895BCD088F09F5790F0B92F9927B75162
:10479000A0F0D1F0660F771F881F991F1AF0BA9505
:1047A000C9F712C0B13081F0C3D0B1E00895C0C0E4
:1047B000672F782F8827B85F39F0B93FCCF38695FB
:1047C00077956795B395D9F73EF490958095709558
:1047D00061957F4F8F4F9F4F0895E89409C097FBD5
:1047E0003EF490958095709561957F4F8F4F9F4FC8
:1047F0009923A9F0F92F96E9BB279395F69587950C
:1048000077956795B795F111F8CFFAF4BB0F11F4CE
:1048100060FF1BC06F5F7F4F8F4F9F4F16C0882375
:1048200011F096E911C0772321F09EE8872F762FAB
:1048300005C0662371F096E8862F70E060E02AF0EC
:104840009A95660F771F881FDAF7880F96958795D8
:1048500097F90895990F0008550FAA0BE0E8FEEFAD
:1048600016161706E807F907C0F012161306E40734
:10487000F50798F0621B730B840B950B39F40A262D
:1048800061F0232B242B252B21F408950A2609F40B
:10489000A140A6958FEF811D811D089597F99F670F
:1048A00080E870E060E008959FEF80EC08950024B8
:1048B0000A941616170618060906089500240A9485
:1048C00012161306140605060895092E0394000C0B
:1048D00011F4882352F0BB0F40F4BF2B11F460FF9A
:1048E00004C06F5F7F4F8F4F9F4F089557FD9058C3
:1048F000440F551F59F05F3F71F04795880F97FBA4
:10490000991F61F09F3F79F087950895121613065D
:104910001406551FF2CF4695F1DF08C0161617068C
:104920001806991FF1CF86957105610508940895C1
:10493000E894BB2766277727CB0197F908958ADF8C
:1049400008F48FEF08950BD0C0CFB1DF28F0B6DFA9
:1049500018F0952309F0A2CFA7CF1124EACFC6DF24
:10496000A0F3959FD1F3950F50E0551F629FF00182
:10497000729FBB27F00DB11D639FAA27F00DB11DDB
:10498000AA1F649F6627B00DA11D661F829F222764
:10499000B00DA11D621F739FB00DA11D621F839FEB
:1049A000A00D611D221F749F3327A00D611D231FC1
:1049B000849F600D211D822F762F6A2F11249F570F
:1049C00050408AF0E1F088234AF0EE0FFF1FBB1F32
:1049D000661F771F881F91505040A9F79E3F5105D1
:1049E00070F05CCFA6CF5F3FECF3983EDCF386958A
:1049F00077956795B795F795E7959F5FC1F7FE2B7C
:104A0000880F911D9695879597F9089597FB072E26
:104A100016F4009407D077FD09D00E94662507FCA4
:104A200005D03EF4909581959F4F089570956195BE
:104A30007F4F0895A1E21A2EAA1BBB1BFD010DC0DA
:104A4000AA1FBB1FEE1FFF1FA217B307E407F5073E
:104A500020F0A21BB30BE40BF50B661F771F881F1A
:104A6000991F1A9469F760957095809590959B01B0
:104A7000AC01BD01CF010895052E97FB1EF40094F3
:104A80000E94532557FD07D00E941A2507FC03D02A
:104A90004EF40C94532550954095309521953F4FF9
:104AA0004F4F5F4F089590958095709561957F4F1A
:104AB0008F4F9F4F08950E948025A59F900DB49F12
:104AC000900DA49F800D911D11240895AA1BBB1B5E
:104AD00051E107C0AA1FBB1FA617B70710F0A61BFE
:104AE000B70B881F991F5A95A9F780959095BC011F
:104AF000CD010895EE0FFF1F0590F491E02D09946C
:104B0000A29FB001B39FC001A39F700D811D11240E
:104B1000911DB29F700D811D1124911D0895CF9399
:104B2000DF938230910510F482E090E0E0918204FE
:104B3000F091830420E030E0A0E0B0E0309739F15C
:104B40004081518148175907B8F04817590771F447
:104B500082819381109729F013969C938E931297DC
:104B60002CC0909383048093820427C021153105C3
:104B700031F04217530718F0A901DB0101C0EF0122
:104B80009A01BD01DF010280F381E02DD7CF21150D
:104B90003105F9F0281B390B2430310580F48A8166
:104BA0009B816115710521F0FB019383828304C011
:104BB0009093830480938204FE01329644C0FE01E8
:104BC000E20FF31F81939193225031093983288397
:104BD0003AC02091800430918104232B41F420912C
:104BE00002013091030130938104209380042091CD
:104BF0000001309101012115310541F42DB73EB777
:104C00004091040150910501241B350BE091800473
:104C1000F0918104E217F307A0F42E1B3F0B281735
:104C2000390778F0AC014E5F5F4F2417350748F025
:104C30004E0F5F1F509381044093800481939193A2
:104C400002C0E0E0F0E0CF01DF91CF910895CF9373
:104C5000DF93009709F487C0FC0132971382128218
:104C6000C0918204D0918304209781F42081318106
:104C7000280F391F80918004909181048217930737
:104C800079F5F0938104E09380046DC0DE0120E0AB
:104C900030E0AE17BF0750F412964D915C91139718
:104CA0009D014115510509F1DA01F3CFB383A283C8
:104CB00040815181840F951F8A179B0771F48D9154
:104CC0009C911197840F951F029691838083129671
:104CD0008D919C911397938382832115310529F43B
:104CE000F0938304E09382043EC0D9011396FC93B1
:104CF000EE9312974D915D91A40FB51FEA17FB0734
:104D000079F480819181840F951F0296D9011196C3
:104D10009C938E938281938113969C938E9312978A
:104D2000E0E0F0E08A819B81009719F0FE01EC0140
:104D3000F9CFCE01029628813981820F931F2091ED
:104D40008004309181042817390769F4309729F4D9
:104D5000109283041092820402C013821282D093B4
:104D60008104C0938004DF91CF910895A0E0B0E06A
:104D7000ECEBF6E20C940C28EC01CB01209719F433
:104D80000E948F25B8C0FE01E60FF71F9E0122503A
:104D90003109E217F30708F4ACC0D9010D911C9159
:104DA000119706171707B8F00530110508F49FC0D2
:104DB000A801445051094617570708F498C00250FB
:104DC0001109061B170B019311936D937C93CF016F
:104DD0000E9427268CC05B01A01AB10A4E01800EEA
:104DE000911EA0918204B0918304612C712C60E02B
:104DF00070E0109709F449C0A815B905C9F5ED9000
:104E0000FC901197670142E0C40ED11CCA14DB0468
:104E100078F147018A189B08640142E0C40ED11C56
:104E20001296BC9012971396AC91B5E0CB16D104B4
:104E300040F0B282A38391828082D9018D939C93AA
:104E400009C00E5F1F4F0E0D1F1DF9011183008356
:104E5000EB2DFA2F6115710531F0DB011396FC93F0
:104E6000EE93129744C0F0938304E09382043FC012
:104E70006D917C9111976616770608F43B01BD0190
:104E800012960D90BC91A02DB4CF609180047091CA
:104E9000810468157905E9F468167906D0F4409123
:104EA0000001509101014115510541F44DB75EB724
:104EB0006091040170910501461B570BE417F5073B
:104EC000C0F4F0938104E0938004F901918380831E
:104ED0000EC00E948F257C01009759F0A801BE01E9
:104EE0000E94A727CE010E942726C70104C0CE0139
:104EF00002C080E090E0CDB7DEB7EEE00C94282849
:104F00001F93FC0199278827BC01E8941191103266
:104F1000E9F3193010F01E30C8F31B3251F01D3286
:104F200049F4689406C00E94DD27610F711D811D40
:104F3000911D119110531A30B0F33EF49095809565
:104F4000709561957F4F8F4F9F4F1F910895FB0183
:104F5000DC0102C001900D9241505040D8F70895F5
:104F6000FB01DC018D91019080190110D9F3990B9F
:104F70000895FB01DC0101900D920020E1F70895F6
:104F8000FB01DC014150504030F08D9101908019BF
:104F900019F40020B9F7881B990B0895FB01DC0177
:104FA0004150504048F001900D920020C9F701C0D7
:104FB0001D9241505040E0F70895592F482F372F48
:104FC000262F660F771F881F991F660F771F881F70
:104FD000991F620F731F841F951F660F771F881F0D
:104FE000991F0895F999FECF92BD81BDF89A99272E
:104FF00080B50895262FF999FECF1FBA92BD81BDC5
:1050000020BD0FB6F894FA9AF99A0FBE019608954A
:105010002F923F924F925F926F927F928F929F92C8
:10502000AF92BF92CF92DF92EF92FF920F931F93B6
:10503000CF93DF93CDB7DEB7CA1BDB0B0FB6F89467
:10504000DEBF0FBECDBF09942A88398848885F84A7
:105050006E847D848C849B84AA84B984C884DF8018
:10506000EE80FD800C811B81AA81B981CE0FD11DFC
:105070000FB6F894DEBF0FBECDBFED01089510E06E
:10508000C6ECD0E004C0FE010E947C252296C83CFC
:08509000D107C9F7F894FFCF26
:10509800000084048000E71BE71B013730343131FE
:1050A80039363935390041542B434D4744413D2267
:1050B80044454C20414C4C220041542B434D47520F
:1050C8003D004F4B0D004552524F520D0041540DBB
:1050D8000A0041542B444445543D310D0A004154C3
:1050E8002B434C49503D310D0A0041542B434C434E
:1050F800433D310D0A00434C454152414C4C00524E
:10510800504D004D2D004D2B002B434D47523A007A
:105118002B434D54493A002B434C49503A20220026
:1051280052494E470D002B44544D463A004E4F20ED
:10513800434152524945520D00425553590D004EB4
:105148004F20414E535745520D00414D525F535425
:105158004F500D002B434C43433A20312C302C3315
:10516800002B434C43433A20312C302C30002B4346
:105178004C43433A20312C302C36004154442B39CF
:1051880031003B004D616368696E65204F464600FB
:1051980052504D20484947480052504D204C4F57D7
:1051A8000041542B434D47463D310D0041542B439C
:1051B8004D47533D222B39310041542B434D47462F
:1051C8003D300D0041542B4350414D523D22002E9D
:1051D800616D72222C300D004154410041542B4323
:1051E80050414D520D0041542B4348555000320058
:1051F800340041542B4346554E3D300D0A0041546E
:105208002B4346554E3D310D0A002B4350494E3A2B
:10521800204E4F542052454144590D0000000000D3
:105228008419B51EF0196319D619081A6E616E0033
:10523800696E66006F7666002E00000000008B2203
:0A524800B51E0D222622182269224D
:107E0000112484B714BE81FFF0D085E080938100F7
:107E100082E08093C00088E18093C10086E0809377
:107E2000C20080E18093C4008EE0C9D0259A86E02C
:107E300020E33CEF91E0309385002093840096BBD3
:107E4000B09BFECF1D9AA8958150A9F7CC24DD24C4
:107E500088248394B5E0AB2EA1E19A2EF3E0BF2EE7
:107E6000A2D0813461F49FD0082FAFD0023811F036
:107E7000013811F484E001C083E08DD089C08234E0
:107E800011F484E103C0853419F485E0A6D080C0E4
:107E9000853579F488D0E82EFF2485D0082F10E0AE
:107EA000102F00270E291F29000F111F8ED06801E7
:107EB0006FC0863521F484E090D080E0DECF843638
:107EC00009F040C070D06FD0082F6DD080E0C81688
:107ED00080E7D80618F4F601B7BEE895C0E0D1E017
:107EE00062D089930C17E1F7F0E0CF16F0E7DF06D8
:107EF00018F0F601B7BEE89568D007B600FCFDCFD4
:107F0000A601A0E0B1E02C9130E011968C91119780
:107F100090E0982F8827822B932B1296FA010C0160
:107F200087BEE89511244E5F5F4FF1E0A038BF0790
:107F300051F7F601A7BEE89507B600FCFDCF97BE46
:107F4000E89526C08437B1F42ED02DD0F82E2BD052
:107F50003CD0F601EF2C8F010F5F1F4F84911BD097
:107F6000EA94F801C1F70894C11CD11CFA94CF0C13
:107F7000D11C0EC0853739F428D08EE10CD085E9AC
:107F80000AD08FE07ACF813511F488E018D01DD067
:107F900080E101D065CF982F8091C00085FFFCCF94
:107FA0009093C60008958091C00087FFFCCF809118
:107FB000C00084FD01C0A8958091C6000895E0E648
:107FC000F0E098E1908380830895EDDF803219F02E
:107FD00088E0F5DFFFCF84E1DECF1F93182FE3DFCA
:107FE0001150E9F7F2DF1F91089580E0E8DFEE27F6
:047FF000FF270994CA
:027FFE00040479
:0400000300007E007B
:00000001FF
